:100000000C942D000C9411020C941B030C941B03F4
:100010000C941B030C941B030C941B030C941B03E8
:100020000C941B030C941B030C941B030C941B03D8
:100030000C941B030C941B030C941B030C941B03C8
:100040000C941B030C941B030C941B030C941B03B8
:100050000C941B0300600064800011241FBECFE5D8
:10006000D8E0DEBFCDBFE4E5F0E040E017C0B591D9
:10007000A59135912591059107FD0CC0959185912C
:10008000EF01F92FE82F05900D92A217B307D9F7CA
:10009000FE0104C01D92A217B307E1F7E935F4078A
:0E00A00031F70E94A2000C945500F894FFCF97
:1000AE0044616E6765722052616E67652020200084
:1000BE000000000000000000000000000000446985
:1000CE007374616E6365203D200000000000000027
:1000DE00000000000000000000000000636D202002
:1000EE0020200000000000000000000000000000C2
:1000FE000000000000000000000043617574696F8D
:10010E006E2052616E676520200000000000000026
:10011E000000000000000000536166652052616E11
:10012E006765202020000000000000000000000095
:06013E00000000000000BB
:10014400CF93DF93CDB7DEB7CA56D1090FB6F89473
:10015400DEBF0FBECDBF8FEF87BB84BB8BEF81BBF0
:1001640083ED90E30197F1F700C000008BB7806442
:100174008BBF85B7816085BF82E00E94410288E21F
:100184000E9441028CE00E94410286E00E944102EA
:10019400789482B3816082BB95E09A95F1F782B33B
:1001A4008E7F82BBA5E0AA95F1F7809162009091C1
:1001B40063006AE370E00E94CB028B010F5F1F4F64
:1001C4000B3011050CF062C080EC85BBBFE32DE061
:1001D40083E0B15020408040E1F700C0000015BA30
:1001E4002EEA30E040E080E1F901DE01A35BBF4F7D
:1001F400742F0E940303EDE4F0E0EC0FFD1F7096F2
:100204008EE0DF011D928A95E9F72CEC30E040E0A6
:100214008CE0F901DE019F96742F0E940303FE0116
:10022400FB9682E1DF011D928A95E9F72AEE30E020
:1002340040E087E0F901DE015196742F0E94030328
:10024400FE01789687E1DF011D928A95E9F780E83F
:100254000E944102CE01835B9F4F0E94B50280EC55
:100264000E944102CE018F960E94B5024AE0BE016F
:100274006F5F7F4FC8010E941003CE0101960E9458
:10028400B502CE0141960E94B50283CFC8010B97F7
:100294000A9708F062C080E385BBBFE32DE083E0EA
:1002A400B15020408040E1F700C0000015BA28E0BA
:1002B40031E040E080E1F901DE01A35BBF4F742F20
:1002C4000E940303EDE4F0E0EC0FFD1F70968EE056
:1002D400DF011D928A95E9F72CEC30E040E08CE0D8
:1002E400F901DE019F96742F0E940303FE01FB9621
:1002F40082E1DF011D928A95E9F72AEE30E040E0C1
:1003040087E0F901DE015196742F0E940303FE0178
:10031400789687E1DF011D928A95E9F780E80E94CB
:100324004102CE01835B9F4F0E94B50280EC0E9484
:100334004102CE018F960E94B5024AE0BE016F5F72
:100344007F4FC8010E941003CE0101960E94B5029E
:10035400CE0141960E94B5021CCF8CE085BBBFE361
:100364002DE083E0B15020408040E1F700C0000060
:1003740015BA26E231E040E08EE0F901DE01A35B2C
:10038400BF4F742F0E940303EDE4F0E0EC0FFD1F58
:100394003E9680E1DF011D928A95E9F72CEC30E06E
:1003A40040E08CE0F901DE019F96742F0E94030364
:1003B400FE01FB9682E1DF011D928A95E9F72AEEA0
:1003C40030E040E087E0F901DE015196742F0E948D
:1003D4000303FE01789687E1DF011D928A95E9F710
:1003E40080E80E944102CE01835B9F4F0E94B502C8
:1003F40080EC0E944102CE018F960E94B5024AE031
:10040400BE016F5F7F4FC8010E941003CE010196A9
:0E0414000E94B502CE0141960E94B502BACEFA
:100422001F920F920FB60F9211248F939F93809178
:10043200600090916100019769F41EBC8CB59DB576
:1004420090936300809362001DBC1CBC10926100FB
:10045200109260008091600090916100892B49F4B4
:100462008EB581608EBD81E090E0909361008093B3
:1004720060009F918F910F900FBE0F901F90189563
:10048200982F907F98BB98B39E7F98BB98B39D7F1F
:1004920098BB98B3946098BBE9EFF0E03197F1F71D
:1004A20000C0000098B39B7F98BBF0E18F9FC00112
:1004B200112488BB88B38E7F88BB88B38D7F88BBAD
:1004C20088B3846088BB89EF90E00197F1F700C0A0
:0A04D200000088B38B7F88BB0895FB
:1004DC00982F907F98BB98B3916098BB98B39D7FF1
:1004EC0098BB98B3946098BBE9EFF0E03197F1F7C3
:1004FC0000C0000098B39B7F98BBF0E18F9FC001B8
:10050C00112488BB88B3816088BB88B38D7F88BB7E
:10051C0088B3846088BB89EF90E00197F1F700C045
:0A052C00000088B38B7F88BB0895A0
:10053600BB27FB015527AA27880F991FAA1FA417B7
:1005460010F0A41B83955051B9F7A05DAA3308F0AB
:10055600A95DA193009779F7B111B1931192CB01DF
:040566000C94F302FC
:10056A000F931F93CF93DF938C01C0E0D0E003C0B9
:10057A000E946E022196F801EC0FFD1F8081811105
:0C058A00F7CFDF91CF911F910F910895E2
:1005960097FB072E16F4009407D077FD09D00E942A
:1005A600DF0207FC05D03EF4909581959F4F089594
:0805B600709561957F4F0895D7
:1005BE00AA1BBB1B51E107C0AA1FBB1FA617B7077B
:1005CE0010F0A61BB70B881F991F5A95A9F7809597
:0805DE009095BC01CD010895C8
:1005E600DC01FC01672F71917723E1F7329704C094
:1005F6007C916D9370836291AE17BF07C8F308951F
:10060600992777FD05C005900D920197E1F70895AA
:0A06160001900D920197E1F708959D
:10062000BB274A3031F4992322F4BDE2909581959D
:060630009F4F0C949C0298
:040636000C94000020
:00000001FF
